:020000040800F2
:1000000068080020CD010008B9560008131F000839
:100010005F540008A9030008555F000800000000B5
:100020000000000000000000000000006F5A0008FF
:10003000AB030008000000006D5A0008715A000868
:10004000E7010008E7010008E7010008E7010008F0
:10005000E7010008E7010008E70100086104000863
:10006000E7010008E7010008E7010008E7010008D0
:10007000E7010008E7010008E7010008E7010008C0
:10008000E7010008E7010008E7010008E7010008B0
:10009000E7010008E7010008E7010008E7010008A0
:1000A000E7010008E7010008E7010008E701000890
:1000B000E7010008E7010008E7010008E701000880
:1000C000E7010008E7010008E7010008E701000870
:1000D000E7010008E70100083D5F0008495F0008EC
:1000E000E7010008E7010008E7010008E701000850
:1000F000E7010008E7010008E7010008E701000840
:10010000E7010008E7010008E7010008E70100082F
:10011000E7010008E7010008E7010008E70100081F
:10012000E7010008E7010008E7010008E70100080F
:1001300000F002F800F03AF80AA090E8000C8244BF
:100140008344AAF10107DA4501D100F02FF8AFF29C
:10015000090EBAE80F0013F0010F18BFFB1A43F0A5
:1001600001031847CC8D0700EC8D0700103A24BF1F
:1001700078C878C1FAD8520724BF30C830C144BF0C
:1001800004680C607047000000230024002500264E
:10019000103A28BF78C1FBD8520728BF30C148BFEA
:1001A0000B6070471FB51FBD10B510BD00F058F8AB
:1001B0001146FFF7F7FF05F00FFF00F076F803B4E4
:1001C000FFF7F2FF03BC00F07DF80000094880470C
:1001D00009480047FEE7FEE7FEE7FEE7FEE7FEE729
:1001E000FEE7FEE7FEE7FEE704480549054A064B41
:1001F00070470000EF5A0008310100086802002033
:100200006808002068040020680400204FF0000205
:1002100000B5134694469646203922BFA0E80C50FC
:10022000A0E80C50B1F12001BFF4F7AF090728BFD7
:10023000A0E80C5048BF0CC05DF804EB890028BF53
:1002400040F8042B08BF704748BF20F8022B11F07C
:10025000804F18BF00F8012B7047704770477047F8
:10026000754600F02BF8AE4605006946534620F06F
:100270000700854618B020B5FFF7B6FFBDE820405F
:100280004FF000064FF000074FF000084FF0000B52
:1002900021F00701AC46ACE8C009ACE8C009ACE805
:1002A000C009ACE8C0098D46704710B50446AFF3ED
:1002B00000802046BDE81040FFF781BF004870472E
:1002C0000802002001491820ABBEFEE7260002000C
:1002D0007047000070B5044600688168C943C907CB
:1002E00017D1816821F00101816000F025FE0546EB
:1002F0000AE000BF00F020FE401B022804D920685D
:100300008068C043C00706D020688068C043C0072B
:10031000F0D0002070BDA06A40F01000A062E06A3A
:1003200040F00100E062012070BD0000F8B5002639
:100330000446009600688168C943C9072DD08168CA
:1003400041F001018160164816490068B0FBF1F0E8
:1003500000E0401E00900028FBD100F0EDFD0546B6
:1003600016E000BF00F0E8FD401B022810D920680D
:100370008068C043C0070BD0A06A40F01000A062A4
:10038000E06A40F00100E06284F824600120F8BDDA
:1003900020688068C043C007E4D10020F8BD000099
:1003A0007400002040420F00FEE77047014640F60F
:1003B000FC00814225D90A20B1F5166F20D91420FE
:1003C00040F6282291421BD91E20B1F52F6F17D974
:1003D000282040F6B832914212D93220B1F5486F48
:1003E0000ED93C2040F64852914209D94620B1F539
:1003F000616F05D9502040F6D862914200D964203F
:100400007047B1F5C86F29D240F2DC526FF0090095
:100410009142F5D24000B1F5AF6FF1D26FF01D00FF
:10042000B1F5966FECD26FF02700B1F57A7FE7D285
:100430006FF03100B1F5487FE2D26FF03B00B1F5CB
:10044000167FDDD26FF04500B1F5C87FD8D26FF0CE
:100450004F00C829D4D26FF0630070470020704766
:10046000022000F05BBC72B6FEE7000030B5B3F5C9
:10047000804F05D06FF0704140F82210002030BD51
:100480008C690B688D6823434C688989240144EA90
:100490000524234343EA014150F82230014C234014
:1004A0001943E9E70000F0CF10B50A6850F8223090
:1004B00023F0010340F822308C68082C23D000235D
:1004C0004A682243CC681C430B6922431A434B6998
:1004D0000E4C1A43CB691A430B6A1A434B6A1A43F0
:1004E0008B6A1A43CB6A1A430B6B1A438B6913430B
:1004F0004A6B09681A4350F82130A343134340F86C
:100500002130002010BD4023DAE700007FFF0F00FC
:1005100030B5D1E9003443EA04138C688D89240294
:1005200044EA054423430C8A074D00EB820005EBA7
:10053000045423430C7D6D0105EB04648969234356
:100540000B434360002030BD0000F0FFF8B50024ED
:10055000009490F824202546012A12D0012280F828
:1005600024204A681F23072A0DD20668776B521E83
:1005700002EB820293409F430B6893401F437763D3
:1005800019E00220F8BD06680D2A0AD2376BD21F87
:1005900002EB820293409F430B6893401F433763F3
:1005A00009E0F76A0D3A02EB820293409F430B6821
:1005B00093401F43F7620A68072306680A2A0AD392
:1005C000F7680A3A02EB420293409F438B689340DC
:1005D0001F43F76008E0376902EB420293409F43F4
:1005E0008B6893401F4337610A68102A01D0112A93
:1005F00020D1124B02689A4217D193681B0219D47A
:10060000936843F4000393600968102912D10C49E0
:100610000C4A0968B1FBF2F101EB8101490000E0ED
:10062000491E00910029FBD104E0816A41F02001BC
:100630008162012480F824502046F8BD0024014046
:100640007400002040420F00806A70470068C06C50
:10065000704700002DE9F04104004FF000057FD005
:10066000A06A002628B9E66284F82460204600F0DB
:1006700081F82046FFF72EFEA16AC90600D420B1FA
:10068000A06A40F01000A0626AE0A16A21F48851DB
:1006900041F00201A162334923688B42E16904D130
:1006A000B1F5402F01D14FF40021277B4FF4807C1E
:1006B00041EA470261680A43A168614508D00129FF
:1006C00006D0002194F814E0BEF1010F02D00AE038
:1006D0006146F7E7C7B1A76A47F02007A762E76A54
:1006E00047F00107E7625F6827F469470F435F60DF
:1006F000236899681C4F394011439960A16861458E
:100700000BD0012909D00CE0DFF860E0A7690EEBFF
:1007100047370F4347F40061E5E7218A0D05A5F54A
:1007200080152168CB6A23F470032B43CB622168C8
:1007300089680F4B1940914208D1E662A16A21F005
:10074000020141F00101A162BDE8F081A06A20F040
:10075000020040F01000A062E06A40F00100E06298
:100760000120F1E7003C0140FDF7E1FF00E0FFFF61
:10077000FE0E1FFF10B586B000210091019102917D
:1007800003911A4C03681A4903221A48A34211D153
:100790008B6943F480638B618B6903F480630493FA
:1007A0008B6943F010038B61896901F0100104919A
:1007B000042113E0104CA34215D18B6943F400438C
:1007C0008B618B6903F4004304938B6943F010033E
:1007D0008B61896901F0100104910821CDE90012B3
:1007E000694600F0A7FA06B010BD000000280140DD
:1007F0000010024000100140003C01402DE9F84388
:1008000000270D460446009700F096FB80462068BE
:100810008168C90508D5A06A40F02000A06284F86C
:1008200024700120BDE8F8834168C90503D4C06A7B
:1008300010F4700F2AD0022000F01CFC3B4909681C
:10084000B1FBF0F62068036939490B424FEA6101B8
:100850004FEAA1121FD1C3684FEA611C13EA0C0FC3
:1008600019D103690B4225D1C068104222D114204E
:1008700023E0681C0AD02DB100F05EFBA0EB08005D
:10088000A84203D920680068800725D52068006841
:100890008007EED52DE003690B4202D1C1681142F9
:1008A00006D0026923490A4206D1C068084203D132
:1008B000542002E0292000E0FC204643009816E086
:1008C000681C11D02DB100F037FBA0EB0800A84246
:1008D0000AD90098B04207D2A06A40F00400A06292
:1008E00084F8247003209DE70098401C0090B042DB
:1008F000E6D321686FF012000860A06A40F400702F
:10090000A06220688068C0F3424007280CD1207B99
:1009100050B9A06A20F48070A062A06AC00403D419
:10092000A06A40F00100A06200207BE77400002074
:10093000244992244992240070B5044690F824007A
:1009400001280DD0012084F824002046FFF7EEFC9A
:1009500002004FF0000005D084F82400104670BD5E
:10096000022070BDA16A40F20123994341F48071D5
:10097000A1621F4D23681F49AB4218D10E6816F4BF
:10098000702F14D0A66A46F48016A6620E6876050B
:1009900005D5A66A26F4005646F48056A662A66AD5
:1009A000F6040AD5E66A26F00606E66206E0A66ABE
:1009B00026F48016A6625E68E9E7E06284F8240007
:1009C0006FF00200186020688368C3F34243072B6E
:1009D00005D1A84208D1096811F4702F04D08168AC
:1009E00041F480118160B9E7816841F4A001F9E721
:1009F000002801400424014010B590F82110002285
:100A0000022905D00421816380F82020012010BD37
:100A100001680B6823F00E030B6001680B6823F07C
:100A200001030B6090F84030C46B012101FA03F31D
:100A3000636080F8211080F82020104610BD00006F
:100A40002DE9F05F90F821100024022903D0042141
:100A50008163012485E001680A6822F00E020A60C1
:100A600001680A6822F001020A603F4E3E4FB2154B
:100A7000DFF8F4C0DFF8F090DFF8ECA0DFF8E8B0C2
:100A8000DFF8E4E00168783F13011502ACF1640C73
:100A9000A9F15009AAF13C0AABF1280BAEF1140EF2
:100AA0004FF48018B14227D9B9420ED0614512D017
:100AB00049451DD0514518D0594518D0714501D12F
:100AC000424615E0294EB14201D1012210E0274EE5
:100AD0001436B14201D110220AE0244E2836B14228
:100AE00006D0224A3C32914201D11A4600E02A4601
:100AF0001E49091F0A602BE0B94213D0614517D087
:100B0000494522D051451DD059451DD0714501D1CF
:100B100042461AE0B14202D14FF0807215E0134E06
:100B2000B14201D1012210E0104E1436B14201D180
:100B300010220AE00D4E2836B14206D00B4A3C3254
:100B4000914201D11A4600E02A46074980394A609D
:100B5000012180F82110002180F82010416B01B1A3
:100B600088472046BDE8F09F80000240080402400C
:100B700070B5044600F0E0F90546601C02D0044858
:100B80000078044400F0D8F9401BA042FAD370BDAD
:100B90006800002030B585B00020009001900290E0
:100BA000039017480168002927D1012101601548E9
:100BB000416941F4807141614069022400F4807010
:100BC000049041F20100CDE9000403256946039534
:100BD0000D4800F0AFF84FF68070CDE9000469468B
:100BE00003950A4800F0A6F84CF23370CDE90004F2
:100BF00069460395064800F09DF805B030BD000039
:100C00005800002000100240002001400018014060
:100C1000001401402DE9F84F334E344BDFF8D0B0CB
:100C20001824DFF8D090344A4FF4005A4FF4807102
:100C3000022805D19078401CC0B2907003280CD0D7
:100C400097782E482E4DDFF8BCC0DFF8BC80022F0D
:100C500025D0012F35D017B11CE000209070C2E9DB
:100C600008632A48C2E90A06C2E90C302848C2E9EA
:100C70000E300022484600F059F9002251465846ED
:100C800000F054F9012300220094872140F27120E2
:100C900004F058F91F4901200860BDE8F88F02F1FF
:100CA0002401166281E82110C2E90C05C2E90E3860
:100CB00001225146584600F039F9012302220094DE
:100CC000E3E702F12407144EC2F820C087E8610070
:100CD000C2E90C05C2E90E380122484600F026F9A7
:100CE00001231A460094D0E73333B33E6F12833AA0
:100CF000000C0140000801400000002017B7D13867
:100D0000D044D83B0AD7A33ECDCC4C3DC98E8D39BB
:100D10008FC2F53C140401409A99993E044910B5DC
:100D20000A68024202D00860FFF774FF10BD00009D
:100D3000140401402DE9F84FDFF8C8910024A9F10F
:100D4000040B23460F2709F1040AABF1040ED1E08E
:100D50000125A54006EA0502AA4276D1DFF8A8C11E
:100D60004E68A6EB0C0866452BD00DDC032E34D064
:100D700005DC36B3012E19D0022E2FD11BE0112E27
:100D800016D0122E2AD119E0B8F5881F19D006DC2A
:100D9000B8F5803F15D0B8F5801F1FD111E0B8F528
:100DA000001F0ED0B8F5041F18D10AE0CB6815E07B
:100DB000CB681B1D12E0CB6808330FE0CB680C3307
:100DC0000CE08B682BB1012B4FF0080303D0456179
:100DD00004E0042302E0056100E00023FF2A01D8BB
:100DE000064601E000F104064FEA840501D9A5F1A9
:100DF0002005D6F8008007FA05FC28EA0C0803FA5B
:100E000005F548EA0508C6F800804D68ED0070D584
:100E10003E4DAE6946F00106AE61AD6924F00306B1
:100E200005F0010500953A4D06EB050CDCF808507D
:100E3000A607360F07FA06F825EA0805DFF8D4807A
:100E4000404503D14FF0000825E052E0DFF8C880AC
:100E5000404502D14FF001081DE0DFF8C080404559
:100E600002D14FF0020816E0DFF8B480404502D10D
:100E70004FF003080FE0DFF8AC80404502D14FF09F
:100E8000040808E0DFF8A080404502D14FF00508D3
:100E900001E04FF0060808FA06F848EA0508CCF821
:100EA00008804D68D9F80060ED024D4601D5164323
:100EB00000E096432E604D68DAF80060AD025546BA
:100EC00001D5164300E096432E604D68DBF80060C4
:100ED000AD035D4601D5164300E096432E604D6894
:100EE000DEF80060ED03754601D5164300E0964339
:100EF0002E60641C0A681646E2407FF429AFBDE804
:100F0000F88F00000804014000001110001002409A
:100F10000000014000080140000C014000100140A9
:100F20000014014000180140001C01400AB1016199
:100F300070470904FBE70000014880687047000023
:100F4000680000200248816802781144816070477F
:100F500068000020074810B5016841F010010160E9
:100F6000032000F075F80F2000F006F800F024F8D8
:100F7000002010BD0020024070B50D4D04464FF416
:100F80007A712878B1FBF0F00A490968B1FBF0F0FA
:100F900000F0E2FB48B9102C07D200222146501E77
:100FA00000F036F800206C6070BD012070BD0000BC
:100FB00068000020740000200C4808B5816941F0E9
:100FC00001018161816901F001010091C16941F074
:100FD0008051C161C06900F08050009004484168B0
:100FE00021F0E06141F00071416008BD0010024055
:100FF00000000140002809DB00F01F0201219140A0
:101000004009800000F1E020C0F8001170470000A6
:10101000F0B40E4B1B680C46C3F30223C3F1070563
:10102000042D00D90425191D072901D2002300E051
:10103000DB1E012606FA05F1491E214099409E401B
:10104000761E16403143F0BC04F0B6BF0CED00E054
:10105000064900F0070208684FF6FF03184040EA0F
:101060000220034A10430860704700000CED00E0C6
:101070000000FA0510B501460020284C04292FD0A5
:101080000BDC012930D0022929D100F06BF961680D
:10109000C1F38131491C49001FE0082920D01029E3
:1010A0001DD161682268D20119D51D48C1F3834260
:1010B000C903805C0AD56168194AC1F34041921E98
:1010C000515C184AB2FBF1F1484301E0164948432C
:1010D0006168490203D440000321B0FBF1F010BD68
:1010E000BDE8104000F04EB9226AC2F30121012987
:1010F00003D1920701D5C80310BD022905D1626A48
:10110000920702D549F6404010BD0329FCD1216861
:101110008903F9D54FF2244010BD000000100240B1
:10112000068F070800127A0000093D002DE9F843F8
:1011300005460078354CC00754D0E0690026C00051
:1011400008D4E06940F08050E061E069012600F0D9
:10115000805000902E480168C90512D4016880466D
:1011600041F480710160FFF7E7FE074605E000BF2C
:10117000FFF7E2FEC01B642823D8D8F80000C005A2
:10118000F6D5206A10F4407021D0A98801F440718E
:1011900081421CD0206A1F49012220F440700A605D
:1011A00000220A602062C00711D0FFF7C5FE074683
:1011B00041F2883808E000BFFFF7BEFEC11B414581
:1011C00002D90320BDE8F883206A8007F4D5206A9D
:1011D000696820F44070084320621EB1E06920F085
:1011E0008050E0612878800705D56068A96820F400
:1011F0004040084360602878C00605D5606869698A
:1012000020F48000084360600020DBE7001002400B
:1012100000700040400442422DE9F0470F460500AF
:1012200061D0434E306800F00700B84209D2306800
:1012300020F0070038433060306800F00700B84203
:1012400051D128683B4C810712D5400703D560680F
:1012500040F4E06060602878000703D5606840F4DF
:10126000605060606068A96820F0F000084360602A
:101270002878C00728D06868012810D02168022883
:1012800010D0890700292EDA616821F0030101439B
:101290006160FFF751FE804641F288390DE0216818
:1012A0008903EFE78901EDE7FFF746FEA0EB0801B0
:1012B000494502D90320BDE8F0876068696800F0FD
:1012C0000C00B0EB810FEFD1306800F00700B8429E
:1012D0000BD9306820F0070038433060306800F0E8
:1012E0000700B84201D00120E5E72878400705D57E
:1012F0006068E96820F4E0600843606028780007CF
:1013000006D56068296920F4605040EAC100606039
:1013100000F038F86168084AC1F30311515CC84015
:101320000649086006480068FFF726FE0020C2E76D
:101330000020024000100240168F070874000020B1
:101340006C0000200448054900684968044AC1F35C
:101350000221515CC8407047740000200010024018
:10136000268F07080448054900684968044AC1F304
:10137000C221515CC8407047740000200010024038
:10138000268F07080E4A51680E4801F00C03042B03
:1013900011D0082B0FD10C48C1F38343C903C05CA3
:1013A0000AD55168084AC1F34041921E515C054A72
:1013B0005043B0FBF1F070470449484370470000C8
:1013C0000010024000127A00F48E070800093D0068
:1013D0002DE9F84F040070D02078C04DC00749D0E7
:1013E0006868C0F38100012807D06868C0F38100F5
:1013F000022809D16868C00306D52868800339D55A
:1014000060680028E7D035E06068B0F5803F0BD019
:1014100010B1B0F5A02F11D0286820F480302860DA
:10142000286820F4802002E0286840F4803028609A
:10143000606890B1FFF780FD06460AE0286840F436
:1014400080202860F0E700BFFFF776FD801B64284E
:1014500073D828688003F7D50CE0FFF76DFD0646CA
:1014600005E000BFFFF768FD801B6428F0D82868FE
:101470008003F7D420789A4E80074FF001094FF08F
:10148000000839D5686810F00C0F07D06868C0F301
:101490008100022809D16868C00306D42868800743
:1014A00014D52069012808D110E02069B0B1C6F830
:1014B0000090FFF741FD074605E00AE1FFF73CFD1C
:1014C000C01B0228C4D828688007F7D5286861693E
:1014D00020F0F80040EAC10028600DE0C6F8008066
:1014E000FFF72AFD074604E0FFF726FDC01B022890
:1014F00023D828688007F7D4207800072CD57948AE
:10150000A169D9B1C0F80090FFF716FD074604E0C5
:10151000FFF712FDC01B02280FD8686A8007F7D5B5
:1015200071484FF4FA510068B0FBF1F0009000BF31
:101530000098411E0091FAD20EE080E0C0F80080D1
:10154000FFF7FAFC074604E0FFF7F6FCC01B022891
:1015500075D8686A8007F7D42078400760D5E869B5
:101560000027C00008D4E86940F08050E861E869CD
:10157000012700F0805000905C480168C90513D431
:101580000168834641F480710160FFF7D5FC824613
:1015900006E000BFFFF7D0FCA0EB0A0064284ED89D
:1015A000DBF80000C005F5D5E06801280AD008B1D5
:1015B000052813D0286A20F001002862286A20F04C
:1015C000040002E0286A40F001002862E06841F26D
:1015D000883B98B1FFF7B0FC82460BE0286A40F0E8
:1015E00004002862EEE700BFFFF7A6FCA0EB0A01AB
:1015F00059455AD8286A8007F6D50CE0FFF79CFCBD
:10160000824605E0FFF798FCA0EB0A0159454CD84B
:10161000286A8007F6D41FB1E86920F08050E8619D
:10162000E06988B36968C1F38101022944D00228C6
:10163000C6F8608004D0FFF77FFC044638E034E051
:10164000FFF77AFC074604E0FFF776FCC01B022890
:101650002BD828688001F7D4206AB0F5803F05D1E7
:101660006868A16820F4003008436860D4E9080184
:101670000843696821F4741108436860C6F86090F3
:10168000FFF75AFC044606E025E000BFFFF754FCD4
:10169000001B022809D828688001F7D51BE000BF8D
:1016A000FFF74AFC001B022802D90320BDE8F88F8F
:1016B00028688001F4D40EE00128F7D06868226A17
:1016C00000F48031914204D1616A00F470108842C4
:1016D00001D00120EAE70020E8E700000010024006
:1016E000000042428004424274000020007000402A
:1016F00070B515460E46040007D0A069B0F5807F8E
:1017000003D094F8410010B107E0012070BD002023
:1017100084F84000204600F01DF804F1080120681C
:10172000FEF7C2FE3146A2682068FEF7F1FED4E95A
:1017300001022946236BFEF799FEA168206850F844
:10174000212042F0010240F82120012084F84100CC
:10175000002070BDFFF71EBA10B5401EB0F1807FAB
:1017600001D3012010BD4FF0E02460610F2160170C
:1017700004F022FC0020A06107202061002010BDA1
:1017800070B590F83C20012A2CD0012480F83C4010
:10179000022280F83D2003685A689D6822F0700696
:1017A0000A6832435A60104B02689A420ED00F4BBF
:1017B0009A420BD0B2F1804F08D00D4B9A4205D01F
:1017C0000C4B9A4202D00C4B9A4204D1496825F046
:1017D00080031943916080F83D40002180F83C105F
:1017E000084670BD022070BD002C0140003401404D
:1017F0000004004000080040000C004000B585B027
:101800000021009101910291039100680B498842E7
:1018100011D10B48816941F00401816180696946F9
:1018200000F004000490C02000900220019003907A
:101830000448FFF77FFA05B000BD00000004004037
:10184000001002400008014070B5044690F83C00CA
:1018500000260D4601280FD0012084F83C006AB113
:10186000042A1DD0082A2FD00C2A3FD001260020A0
:1018700084F83C00304670BD022070BD206804F042
:1018800093F92068816941F00801816120688169CC
:1018900021F004018161206881692A69114311E006
:1018A000206804F0B1F92068816941F40061816128
:1018B0002068816921F480618161206881692A69D9
:1018C00041EA02218161D2E7206804F0D3F920685F
:1018D000C16941F00801C1612068C16921F00401BA
:1018E000C1612068C1692A69114311E0206804F0D0
:1018F000F5F92068C16941F40061C1612068C169DE
:1019000021F48061C1612068C1692A6941EA02212C
:10191000C161ACE710B5040003D094F83D0010B1EC
:1019200007E0012010BD002084F83C00204600F0B4
:101930001FF8022084F83D00211D206804F0D8F82B
:10194000012084F8460084F83E0084F83F0084F8C3
:10195000400084F8410084F8420084F8430084F891
:10196000440084F8450084F83D00002010BD0000CC
:1019700008B500680649884208D10648C16941F0A7
:101980000201C161C06900F00200009008BD0000C2
:10199000000400400010024010B50446022249B184
:1019A00004290ED0082913D094F84100012816D03C
:1019B000012010BD94F83E000128F9D184F83E20A2
:1019C0000FE094F83F000128F2D184F83F2008E0AE
:1019D00094F840000128EBD184F8402001E084F81D
:1019E00041200122206804F0D1F813492068134AED
:1019F000884201D0904203D1436C43F400434364D6
:101A0000206888420DD090420BD0B0F1804F08D0B2
:101A10000B49884205D00B49884202D00A498842C6
:101A200004D1816801F00701062903D0016841F063
:101A300001010160002010BD002C01400034014074
:101A40000004004000080040000C00407047704750
:101A5000F8B5016804460868CA684B6910F00F0FB2
:101A60004FF0000559D003F0010602F49077374398
:101A700065D0C10705D0D10503D5616C41F00101E6
:101A80006164410705D5D90703D0616C41F00201BB
:101A90006164810705D5D90703D0616C41F0040169
:101AA0006164010707D502F02001314303D0616C66
:101AB00041F008016164616C00293AD0800604D5C8
:101AC000900602D5204604F060F920684069616CF8
:101AD000C0F38010090700D460B3204604F02EF94B
:101AE00020684069400621D52068143050E8001F66
:101AF00021F0400140E80012002AF5D1E06BA8B1C6
:101B00006D494163E06BFEF79BFF002811D0E06B4D
:101B1000416B01B0BDE8F040084783060FD593063E
:101B20000DD52046BDE8F84004F02FB92046FFF758
:101B30008EFFF8BD2046FFF78AFF6564F8BD266B6F
:101B40002023012E7CD1C6067AD5D60678D5086822
:101B50004868009048694FF00206400640D5E16BA6
:101B6000086840680004000CE8D0A28D8242E5D9E4
:101B7000E085886920282DD020680C3050E8001FAF
:101B800021F4807140E80012002AF5D12068143059
:101B900050E8001F21F0010140E80012002AF5D1B1
:101BA0002068143050E8001F21F0400140E8001286
:101BB000002AF5D184F84230256320680C3050E8C3
:101BC000001F21F0100140E80012002AF5D1E06B5F
:101BD000FEF712FF6663A08DE18D401A81B22AE004
:101BE000A08DE18D401A81B2E08D0028A6D0002999
:101BF000A4D022680C3252E8000F20F4907042E822
:101C00000007002FF5D12068143050E8002F22F093
:101C1000010240E80027002FF5D184F84230256307
:101C200020680C3050E8002F22F0100240E800231A
:101C3000002BF5D166632046FFF708FFF8BDFFE7EC
:101C400005062BD5150629D594F841002128F5D194
:101C5000A068B0F5805F01D12069B0B1206A411C55
:101C60002162216800784860E08C401E0004000C6E
:101C7000E084E3D12068C16821F08001C160206860
:101C8000C16841F04001C160D8E7206A0088C0F314
:101C900008004860206A801C2062E5E74006CDD538
:101CA0005006CBD5CA68204622F04002CA6084F8AC
:101CB000413000F02DF9C1E72D5D000870B504003A
:101CC00004D094F84100002510B106E0012070BD59
:101CD00084F84050204600F023F8242084F8410086
:101CE0002068C16821F40051C160204604F0AEF8BC
:101CF0002068016921F4904101612068416921F067
:101D00002A0141612068C16841F40051C1606564E5
:101D1000202084F8410084F842006563002070BDF3
:101D200030B585B0002400940194029403942E4DA4
:101D300003682E4802210322AB4227D1C36943F432
:101D40000033C361C36903F400330493836943F030
:101D5000040383618069264D00F004000490042090
:101D6000CDE90001039269462846FEF7E3FF08200B
:101D7000CDE90004694628460294FEF7DBFF002205
:101D800011462620FFF744F9262029E0194DAB42E1
:101D900028D1C36943F48023C361C36903F480235A
:101DA0000493836943F0080383618069039200F020
:101DB000080004902815CDE900010F4D694628461A
:101DC000FEF7B8FFE814CDE90004694628460294FE
:101DD000FEF7B0FF002211462720FFF719F9272050
:101DE000FFF708F905B030BD004400400010024084
:101DF0000008014000480040000C014090F84230CB
:101E0000202B01D00220704721B11AB100230363B7
:101E100004F078B8012070472DE9F84306460068C1
:101E2000364901270025364C4FF0020888423AD146
:101E30002046E1780079AA2902D178B101280FD093
:101E40002F4A123202280ED003280FD0931C0428E8
:101E50000FD0052810D0672912D01DE027711CE093
:101E600084F8048019E01170032007E05170042009
:101E700004E01970052001E05970062020710CE083
:101E8000062809D15078117800EB0120E0805878BD
:101E9000197800EB01202081257119490122C91C04
:101EA0001848FFF7ABFF18493068884224D16178A1
:101EB00018224FF41670612904D0622907D06329D3
:101EC0000AD011E0257001230092002209E027705A
:101ED000012300921A4604E084F800800123009256
:101EE00002226E2103F02EF8BDE8F84304490122D6
:101EF000491C0648FFF782BFBDE8F8830044004054
:101F0000000000206801002000480040B0010020CF
:101F10007047FEE72DE9F0479846DDE908579146FE
:101F200004F096FC0446154920F00040884202DC8B
:101F30000020BDE8F0872046396804F089FC01469E
:101F4000284604F0B9FB0E49896B0D4604F0A6FA49
:101F500006462146404604F0AFFB294604F0ACFBA0
:101F600005462146484604F0A7FB294604F034FA0A
:101F7000314604F031FA3C60DBE70000000020410C
:101F80000000002070B509490646002408884D88E5
:101F900021464543204602F0F1FE03F06DF8044867
:101FA00001E00680641CAC42FBD370BDF801002048
:101FB0000008006C2DE9F04F38492C260A4688713C
:101FC00092884FF4305A4FF4285B41F6631E2B275A
:101FD0004FF02A0C4FF0F00845F210594FF44875B5
:101FE0004FF4A0744FF4F07358B10C80A1F8028044
:101FF0004A4530D1A1F808A0A1F80AB0380288817A
:1020000041E0A1F800804C804A4507D1A1F808A022
:10201000A1F80AB04FF42C50888105E072450E817A
:1020200005D14F81A1F80CC00B804D8002E0A1F8D2
:102030000AC08F81A2F5A640103803D0A2F5EE4069
:10204000963801D10C804B80A2F5184006381FD17C
:102050000B804D801CE0724511D0A2F51840063867
:102060000DD00E81A1F80AC0A1F80C70A2F5A6400F
:1020700010380BD0A2F5EE40963807D008E00E815C
:10208000A1F80AC08F810D804B80EFE70B804C8058
:10209000BDE8F04F002002F0AFBD0000F8010020C5
:1020A0002DE9F0419046304A0D460446060A9188D3
:1020B00010462F0A4089A1F5AA43103B0FD0A1F585
:1020C000C853633B24D002F0CBFF304602F0BCFF84
:1020D000E0B202F0B9FF908902F0C2FF36E002F0F0
:1020E000BFFF304602F0B0FF5089401C80B202F0C2
:1020F000B7FFE0B202F0A8FF908902F0B1FF3846C6
:1021000002F0A2FF9089401C80B202F0A9FF20E0FB
:10211000917919B91188091B491E8CB202F0A0FFF0
:10212000260A304602F090FFE0B202F08DFF304602
:1021300002F08AFFE0B202F087FF908902F090FF80
:10214000384602F081FFE8B202F07EFF384602F026
:102150007BFFE8B202F078FF044910890880891CEF
:10216000A1F80080BDE8F081F8010020FE07006CB6
:102170002DE9F05FD32002F073FF02F00DFDFE4C5D
:10218000A08002F009FDA08002F006FD4FF6FF7569
:1021900005EA0020A08002F0FFFCA18849F2413846
:1021A0000843A08047F2897645F2103947F29677C6
:1021B00045F2105A49F6060B40457DD0042002F046
:1021C0004FFF02F0E9FCA08002F0E6FCA08002F0E4
:1021D000E3FC05EA0020A08002F0DEFCA1880843B1
:1021E000A0F50541A080523967D0B04264D0D42018
:1021F00002F036FF02F0D0FCA08002F0CDFCA080FF
:1022000002F0CAFC05EA0020A08002F0C5FCA1880B
:102210000843A080484571D0D32002F021FF02F08E
:10222000BBFCA08002F0B8FCA08002F0B5FC05EA7F
:102230000020A08002F0B0FCA1880843A080B84232
:102240005CD055214FF4704002F020FFAA214FF2DC
:10225000010002F01BFF52214FF2020002F016FFB4
:1022600008214FF2030002F011FF01214FF2040098
:1022700002F00CFF4FF4454002F0F2FE02F08CFC3D
:1022800005EA0020A0804CF2015002F0E9FE02F0C5
:1022900083FCA1880843A0800520FEF769FCA18883
:1022A00051452BD0D32002F0DBFE02F075FCA0805C
:1022B00002F072FCA08001E020E037E102F06CFC4B
:1022C00005EA0020A08002F067FCA1880843A080F6
:1022D000584513D0A12002F0C3FE02F05DFCA0809F
:1022E00002F05AFC05EA0020A08002F055FCA1880B
:1022F0000843A0F5AE41A08061397CD0A08840455C
:102300007AD1CF2002F0ACFE002002F09DFEC12069
:1023100002F09AFE302002F097FEED2002F0A0FEBF
:10232000642002F091FE032002F08EFE122002F0E3
:102330008BFE812002F088FEE82002F091FE8520CD
:1023400002F082FE102002F07FFE7A2002F07CFE76
:10235000CB2002F085FE392002F076FE2C2002F020
:1023600073FE002002F070FE342002F06DFE0220A9
:1023700002F06AFEF72002F073FE202002F064FEF5
:10238000EA2002F06DFE002002F05EFE002002F066
:102390005BFEC02002F064FE1B2002F055FEC1204F
:1023A00002F05EFE012002F04FFEC52002F058FE52
:1023B000302002F049FE302002F046FEC72002F035
:1023C0004FFEB72002F040FE362002F049FE4820C2
:1023D00002F03AFE3A2002F043FE552002F034FEAD
:1023E000B12002F03DFE002002F02EFE1A2002F085
:1023F0002BFEB62001E09BE09FE002F031FE0A20B8
:1024000002F022FEA22002F01FFEF22002F028FEBF
:10241000002002F019FE262002F022FE012002F028
:1024200013FEE02002F01CFE0F2002F00DFE2A2019
:1024300002F00AFE282002F007FE082002F004FE47
:102440000E2002F001FE082002F0FEFD542002F0F2
:10245000FBFDA92002F0F8FD432002F0F5FD0A2063
:1024600002F0F2FD0F2002F0EFFD002002F0ECFD83
:10247000002002F0E9FD002002F0E6FD002002F05D
:10248000E3FDE12002F0ECFD002002F0DDFD15206F
:1024900002F0DAFD172002F0D7FD072002F0D4FD8C
:1024A000112002F0D1FD062002F0CEFD2B2002F01B
:1024B000CBFD562002F0C8FD3C2002F0C5FD0520F2
:1024C00002F0C2FD102002F0BFFD0F2002F0BCFDA3
:1024D0003F2002F0B9FD3F2002F0B6FD0F2002F0D0
:1024E000B3FD2B2002F0BCFD002002F0ADFD00206A
:1024F00002F0AAFD012002F0A7FD3F2002F0A4FD9A
:102500002A2002F0ADFD002002F09EFD002002F026
:102510009BFD002002F098FDEF2002F095FD1120B8
:1025200002F09EFD7820FEF723FBDCE0A68006E0AB
:1025300041F66310A08002F05FBAB0427ED1112054
:1025400002F08EFD7820FEF713FB362002F088FDA6
:10255000002002F079FD3A2002F082FD052002F011
:1025600073FDB22002F07CFD0C2002F06DFD0C200A
:1025700002F06AFD002001E0F801002002F064FD95
:10258000332002F061FD332002F05EFDB72002F03F
:1025900067FD352002F058FDBB2002F061FD3220BE
:1025A00002F052FDC02002F05BFD0C2002F04CFD59
:1025B000C22002F055FD012002F046FDC32002F0CA
:1025C0004FFD102002F040FDC42002F049FD202004
:1025D00002F03AFDC62002F043FD0F2002F034FD68
:1025E000D02002F03DFDA42002F02EFDA12002F03B
:1025F0002BFDE02002F034FDD02002F025FD00206C
:1026000002F022FD022002F01FFD072002F01CFD57
:102610000A2002F019FD282002F016FD322002F0F7
:1026200013FD442002F010FD422002F00DFD0620B3
:1026300002F00AFD0E2002F007FD00E056E0122035
:1026400002F002FD142002F0FFFC172002F0FCFC57
:10265000E12002F005FDD02002F0F6FC002002F09F
:10266000F3FC022002F0F0FC072002F0EDFC0A204F
:1026700002F0EAFC282002F0E7FC312002F0E4FC42
:10268000542002F0E1FC472002F0DEFC0E2002F0B4
:10269000DBFC1C2002F0D8FC172002F0D5FC1B202C
:1026A00002F0D2FC1E2002F0CFFC2A2002F0D8FC5F
:1026B000002002F0C9FC002002F0C6FC002002F05D
:1026C000C3FCEF2002F0C0FC2B2002F0C9FC00206C
:1026D00002F0BAFC002002F0B7FC012002F0B4FCCA
:1026E0003F2002F0B1FC292002F07FB948457CD19F
:1026F000ED2002F0B5FC012002F0A6FCFE2002F065
:10270000A3FCEE2002F0ACFCDE2002F09DFC2120B8
:1027100002F09AFCF12002F0A3FC012002F094FCEC
:10272000DF2002F09DFC102002F08EFCC42002F09D
:1027300097FC8F2002F088FCC62002F091FC00205C
:1027400002F082FCE22002F07FFCE22002F07CFC3E
:10275000E22002F079FCBF2002F082FCAA2002F005
:1027600073FCB02002F07CFC0D2002F06DFC002018
:1027700002F06AFC0D2002F067FC002002F064FC0D
:10278000112002F061FC002002F05EFC192002F032
:102790005BFC002002F058FC212002F055FC0020D8
:1027A00002F052FC2D2002F04FFC002002F04CFC05
:1027B0003D2002F049FC002002F046FC5D2002F0C2
:1027C00043FC002002F040FC5D2002F03DFC0020B4
:1027D00002F03AFCB12002F043FC802002F034FC0D
:1027E000002002F031FC8B2000E0FCE302F02CFC26
:1027F000002002F029FC962002F026FC002002F0C6
:1028000023FCB22002F02CFC002002F01DFC002072
:1028100002F01AFC022002F017FC002002F014FC67
:10282000032002F011FC002002F00EFCB32002F0A5
:1028300017FC002002F008FC002002F005FC00203C
:1028400002F002FC002002F0FFFB002002F0FCFB83
:10285000002002F0F9FB002002F0F6FB002002F05D
:10286000F3FB002002F0F0FB002002F0EDFB002063
:1028700002F0EAFB002002F0E7FB002002F0E4FB9C
:10288000002002F0E1FB002002F0DEFB002002F05D
:10289000DBFB002002F0D8FB002002F0D5FB00207B
:1028A00002F0D2FB002002F0CFFB002002F0CCFBB4
:1028B000002002F0C9FB002002F0C6FB002002F05D
:1028C000C3FBB42002F0CCFB8B2002F0BDFB002048
:1028D00002F0BAFB962002F0B7FB002002F0B4FB36
:1028E000A12002F0B1FB002002F0AEFBB52002F007
:1028F000B7FB022002F0A8FB002002F0A5FB03209A
:1029000002F0A2FB002002F09FFB042002F09CFBDF
:10291000002002F099FBB62002F0A2FB002002F09A
:1029200093FB002002F090FBB72002F099FB0020FF
:1029300002F08AFB002002F087FB3F2002F084FBBC
:10294000002002F081FB5E2002F07EFB002002F0FE
:102950007BFB642002F078FB002002F075FB8C20EA
:1029600002F072FB002002F06FFBAC2002F06CFB67
:10297000002002F069FBDC2002F066FB002002F080
:1029800063FB702002F060FB002002F05DFB9020F2
:1029900002F05AFB002002F057FBEB2002F054FB40
:1029A000002002F051FBDC2002F04EFB002002F080
:1029B0004BFBB82002F054FB002002F045FB002046
:1029C00002F042FB002002F03FFB002002F03CFB43
:1029D000002002F039FB002002F036FB002002F05C
:1029E00033FB002002F030FBBA2002F039FB242038
:1029F00002F02AFB002002F027FB002002F024FB5B
:102A0000002002F021FBC12002F02AFB202002F06E
:102A10001BFB002002F018FB542002F015FB0020E5
:102A200002F012FBFF2002F00FFB002002F00CFB73
:102A3000C22002F015FB0A2002F006FB002002F083
:102A400003FB042002F000FB002002F0FDFAC3208B
:102A500002F006FB3C2002F0F7FA002002F0F4FA44
:102A60003A2002F0F1FA002002F0EEFA392002F0EA
:102A7000EBFA002002F0E8FA372002F0E5FA002035
:102A800002F0E2FA3C2002F0DFFA002002F0DCFA69
:102A9000362002F0D9FA002002F0D6FA322002F0F5
:102AA000D3FA002002F0D0FA2F2002F0CDFA002055
:102AB00002F0CAFA2C2002F0C7FA002002F0C4FA91
:102AC000292002F0C1FA002002F0BEFA262002F00E
:102AD000BBFA002002F0B8FA242002F0B5FA002078
:102AE00002F0B2FA242002F0AFFA002002F0ACFAB1
:102AF000232002F0A9FA002002F0A6FA3C2002F0FE
:102B0000A3FA002002F0A0FA362002F09DFA00207D
:102B100002F09AFA322002F097FA002002F094FABA
:102B20002F2002F091FA002002F08EFA2C2002F001
:102B30008BFA002002F088FA292002F085FA0020A2
:102B400002F082FA262002F07FFA002002F07CFADE
:102B5000242002F079FA002002F076FA242002F014
:102B600073FA002002F070FA232002F06DFA0020C0
:102B700002F06AFAC42002F073FA622002F064FAEA
:102B8000002002F061FA052002F05EFA002002F057
:102B90005BFA842002F058FA002002F055FAF02087
:102BA00002F052FA002002F04FFA182002F04CFA1C
:102BB000002002F049FAA42002F046FA002002F0B8
:102BC00043FA182002F040FA002002F03DFA5020AB
:102BD00002F03AFA002002F037FA0C2002F034FA40
:102BE000002002F031FA172002F02EFA002002F045
:102BF0002BFA952002F028FA002002F025FAF320A3
:102C000002F022FA002002F01FFAE62002F01CFA7D
:102C1000002002F019FAC52002F022FA322002F058
:102C200013FA002002F010FA442002F00DFA0020FE
:102C300002F00AFA652002F007FA002002F004FA16
:102C4000762002F001FA002002F0FEF9882002F05E
:102C5000FBF9002002F0F8F9C62002F001FA20206A
:102C600002F0F2F9002002F0EFF9172002F0ECF97F
:102C7000002002F0E9F9012002F0E6F9002002F05C
:102C8000E3F9C72002F0ECF9002002F0DDF90020A2
:102C900002F0DAF9002002F0D7F9002002F0D4F9AE
:102CA000C82002F0DDF9002002F0CEF9002002F089
:102CB000CBF9002002F0C8F9002002F0C5F9C920C4
:102CC00002F0CEF9002002F0BFF9002002F0BCF9BA
:102CD000002002F0B9F9002002F0B6F9002002F05D
:102CE000B3F9002002F0B0F9002002F0ADF90020A5
:102CF00002F0AAF9002002F0A7F9002002F0A4F9DE
:102D0000002002F0A1F9002002F09EF9002002F05C
:102D10009BF9002002F098F9002002F095F90020BC
:102D200002F092F9E02002F09BF9162002F08CF9F3
:102D3000002002F089F91C2002F086F9002002F040
:102D400083F9212002F080F9002002F07DF936207D
:102D500002F07AF9002002F077F9462002F074F9C7
:102D6000002002F071F9522002F06EF9002002F00A
:102D70006BF9642002F068F9002002F065F97A200E
:102D800002F062F9002002F05FF98B2002F05CF99A
:102D9000002002F059F9992002F056F9002002F0C3
:102DA00053F9A82002F050F9002002F04DF9B920A3
:102DB00002F04AF9002002F047F9C42002F044F979
:102DC000002002F041F9CA2002F03EF9002002F092
:102DD0003BF9D22002F038F9002002F035F9D92071
:102DE00002F032F9002002F02FF9E02002F02CF975
:102DF000002002F029F9F32002F026F9002002F069
:102E000023F9E12002F02CF9162002F01DF9002030
:102E100002F01AF91C2002F017F9002002F014F950
:102E2000222002F011F9002002F00EF9362002F003
:102E30000BF9002002F008F9452002F005F9002006
:102E400002F002F9522002F0FFF8002002F0FCF834
:102E5000642002F0F9F8002002F0F6F87A2002F07F
:102E6000F3F8002002F0F0F88B2002F0EDF80020DB
:102E700002F0EAF8992002F0E7F8002002F0E4F806
:102E8000A82002F0E1F8002002F0DEF8B92002F0FC
:102E9000DBF8002002F0D8F8C42002F0D5F80020BA
:102EA00002F0D2F8CA2002F0CFF8002002F0CCF8ED
:102EB000D22002F0C9F8002002F0C6F8D82002F0B3
:102EC000C3F8002002F0C0F8E02002F0BDF80020B6
:102ED00002F0BAF8F32002F0B7F8002002F0B4F8DC
:102EE000E22002F0BDF8052002F0AEF8002002F06A
:102EF000ABF80B2002F0A8F8002002F0A5F81B2088
:102F000002F0A2F8002002F09FF8342002F09CF8B2
:102F1000002002F099F8442002F096F8002002F018
:102F200093F84F2002F090F8002002F08DF8612015
:102F300002F08AF8002002F087F8792002F084F885
:102F4000002002F081F8882002F07EF8002002F0D4
:102F50007BF8972002F078F8002002F075F8A620A0
:102F600002F072F8002002F06FF8B72002F06CF85F
:102F7000002002F069F8C22002F066F8002002F09A
:102F800063F8C72002F060F8002002F05DF8D1205D
:102F900002F05AF8002002F057F8D62002F054F858
:102FA000002002F051F8DD2002F04EF8002002F07F
:102FB0004BF8F32002F048F8002002F045F8E32037
:102FC00002F04EF8052002F03FF8002002F03CF835
:102FD0000A2002F039F8002002F036F81C2002F036
:102FE00033F8002000E0FDE202F02EF8332002F07A
:102FF0002BF8002002F028F8442002F025F80020E9
:1030000002F022F8502002F01FF8002002F01CF815
:10301000622002F019F8002002F016F8782002F081
:1030200013F8002002F010F8882002F00DF80020BC
:1030300002F00AF8972002F007F8002002F004F8E6
:10304000A62002F001F8002001F0FEFFB72001F0F9
:10305000FBFF002001F0F8FFC22001F0F5FF002087
:1030600001F0F2FFC72001F0EFFF002001F0ECFFBC
:10307000D12001F0E9FF002001F0E6FFD52001F0AA
:10308000E3FF002001F0E0FFDD2001F0DDFF002084
:1030900001F0DAFFF32001F0D7FF002001F0D4FFA8
:1030A000E42001F0DDFF012001F0CEFF002001F05F
:1030B000CBFF012001F0C8FF002001F0C5FF022076
:1030C00001F0C2FF002001F0BFFF2A2001F0BCFF89
:1030D000002001F0B9FF3C2001F0B6FF002001F014
:1030E000B3FF4B2001F0B0FF002001F0ADFF5D20E9
:1030F00001F0AAFF002001F0A7FF742001F0A4FF57
:10310000002001F0A1FF842001F09EFF002001F0CB
:103110009BFF932001F098FF002001F095FFA22073
:1031200001F092FF002001F08FFFB32001F08CFF2F
:10313000002001F089FFBE2001F086FF002001F091
:1031400083FFC42001F080FF002001F07DFFCD202F
:1031500001F07AFF002001F077FFD32001F074FF27
:10316000002001F071FFDD2001F06EFF002001F072
:103170006BFFF32001F068FF002001F065FFE52000
:1031800001F06EFF002001F05FFF002001F05CFF06
:10319000002001F059FF002001F056FF022001F04D
:1031A00053FF002001F050FF292001F04DFF0020C7
:1031B00001F04AFF3C2001F047FF002001F044FFEE
:1031C0004B2001F041FF002001F03EFF5D2001F0A7
:1031D0003BFF002001F038FF742001F035FF002094
:1031E00001F032FF842001F02FFF002001F02CFFBE
:1031F000932001F029FF002001F026FFA22001F01A
:1032000023FF002001F020FFB32001F01DFF00206C
:1032100001F01AFFBE2001F017FF002001F014FF9B
:10322000C42001F011FF002001F00EFFCD2001F0BD
:103230000BFF002001F008FFD32001F005FF002064
:1032400001F002FFDC2001F0FFFE002001F0FCFE97
:10325000F32001F0F9FE002001F0F6FEE62001F077
:10326000FFFE112001F0F0FE002001F0EDFE342001
:1032700001F0EAFE002001F0E7FE562001F0E4FE36
:10328000002001F0E1FE762001F0DEFE002001F0DA
:10329000DBFE772001F0D8FE002001F0D5FE66208D
:1032A00001F0D2FE002001F0CFFE882001F0CCFE1C
:1032B000002001F0C9FE992001F0C6FE002001F0B7
:1032C000C3FEBB2001F0C0FE002001F0BDFE99202E
:1032D00001F0BAFE002001F0B7FE662001F0B4FE56
:1032E000002001F0B1FE552001F0AEFE002001F0FB
:1032F000ABFE552001F0A8FE002001F0A5FE452000
:1033000001F0A2FE002001F09FFE432001F09CFE90
:10331000002001F099FE442001F096FE002001F00B
:1033200093FEE72001F09CFE322001F08DFE00208C
:1033300001F08AFE552001F087FE002001F084FE96
:10334000762001F081FE002001F07EFE662001F073
:103350007BFE002001F078FE672001F075FE002062
:1033600001F072FE672001F06FFE002001F06CFE9C
:10337000872001F069FE002001F066FE992001F02F
:1033800063FE002001F060FEBB2001F05DFE002026
:1033900001F05AFE992001F057FE002001F054FE82
:1033A000772001F051FE002001F04EFE442001F094
:1033B0004BFE002001F048FE562001F045FE0020A3
:1033C00001F042FE232001F03FFE002001F03CFE10
:1033D000332001F039FE002001F036FE452001F0D7
:1033E00033FE002001F030FEE82001F039FE00201D
:1033F00001F02AFE002001F027FE992001F024FEB2
:10340000002001F021FE872001F01EFE002001F0C7
:103410001BFE882001F018FE002001F015FE772029
:1034200001F012FE002001F00FFE662001F00CFEFC
:10343000002001F009FE882001F006FE002001F0C6
:1034400003FEAA2001F000FE002001F0FDFDBB20DC
:1034500001F0FAFD002001F0F7FD992001F0F4FDE4
:10346000002001F0F1FD662001F0EEFD002001F0EA
:10347000EBFD552001F0E8FD002001F0E5FD5520B1
:1034800001F0E2FD002001F0DFFD442001F0DCFD51
:10349000002001F0D9FD442001F0D6FD002001F00C
:1034A000D3FD552001F0D0FD002001F0CDFDE92035
:1034B00001F0D6FDAA2001F0C7FD002001F0C4FDF7
:1034C000002001F0C1FD002001F0BEFD002001F050
:1034D000C7FDAA2001F0B8FDCF2001F0C1FD0020FA
:1034E00001F0B2FD002001F0AFFD002001F0ACFDC5
:1034F000002001F0A9FD002001F0A6FD002001F050
:10350000A3FD002001F0A0FD002001F09DFD0020A2
:1035100001F09AFD002001F097FD002001F094FDDC
:10352000002001F091FD002001F08EFD002001F04F
:103530008BFD002001F088FD002001F085FD0020BA
:1035400001F082FDF02001F08BFD002001F07CFDF8
:10355000502001F079FD002001F076FD002001F0FF
:1035600073FD002001F070FDF32001F079FD0020D3
:1035700001F06AFDF92001F073FD062001F064FD01
:10358000102001F061FD292001F05EFD002001F016
:103590005BFD3A2001F064FD552001F055FD11203E
:1035A00001F05EFD6420FDF7E3FA292001F058FDEB
:1035B000352001F055FD002001F046FD512001F0BD
:1035C0004FFDFF2001F040FD532001F049FD2C206C
:1035D00001F03AFD552001F043FD822001F034FD59
:1035E00001F002BA50457CD14FF470485521404655
:1035F00001F04CFD4FF20103AA21184601F046FDEF
:103600004FF202045221204601F040FD661C0821C1
:10361000304601F03BFDA71C0121384601F036FD84
:103620000D214FF4304001F031FD0D214BF201002E
:1036300001F02CFD0D214BF2020001F027FD4FF4AB
:1036400036493421484601F021FD34214BF2016016
:1036500001F01CFD34214BF2026001F017FD4FF424
:10366000314A0D21504601F011FD4BF2011B0D2195
:10367000584601F00BFD0D214BF2021001F006FD42
:1036800034214FF4374001F001FD34214BF2017039
:1036900001F0FCFC34214BF2027001F0F7FC002138
:1036A0004FF4324001F0F2FC00214BF2012001F016
:1036B000EDFC00214BF2022001F0E8FC24214FF444
:1036C000384001F0E3FC24214BF6010001F0DEFC60
:1036D00024214BF6020001F0D9FC01214FF43F40B8
:1036E00000E0FCE301F0D2FC0F214FF4334001F085
:1036F000CDFC0F214BF2013001F0C8FC0F214BF241
:10370000023001F0C3FC34214FF4394001F0BEFC1B
:1037100034214BF6011001F0B9FC34214BF60210B4
:1037200001F0B4FC08214FF4354001F0AFFC082152
:103730004BF2015001F0AAFC08214BF2025001F0BB
:10374000A5FC03214FF4424001F0A0FC24214FF4DA
:103750003A4001F09BFC24214BF6012001F096FC3D
:1037600024214BF6022001F091FC00214FF43C4053
:1037700001F08CFC78214BF6014001F087FC002120
:103780004BF6024001F082FC00214FF43D4001F075
:103790007DFC78214BF6015001F078FC00214BF6BE
:1037A000025001F073FC00214FF43E4001F06EFC2A
:1037B00064214BF6016001F069FC00214FF4514097
:1037C00001F064FC33214DF2011001F05FFC002197
:1037D0004DF2021001F05AFC34214DF2031001F0B9
:1037E00055FC00214DF2041001F050FC3A214DF23D
:1037F000051001F04BFC00214DF2061001F046FCD3
:103800004A214DF2071001F041FC00214DF2081051
:1038100001F03CFC5C214DF2091001F037FC002165
:103820004DF20A1001F032FC81214DF20B1001F033
:103830002DFC00214DF20C1001F028FCA6214DF2C8
:103840000D1001F023FC00214DF20E1001F01EFCC2
:10385000E5214DF20F1001F019FC01214DF210107D
:1038600001F014FC13214DF2111001F00FFC0121A5
:103870004DF2121001F00AFC54214DF2131001F028
:1038800005FC01214DF2141001F000FC82214DF2E3
:10389000151001F0FBFB01214DF2161001F0F6FBB3
:1038A000CA214DF2171001F0F1FB02214DF2181060
:1038B00001F0ECFB00214DF2191001F0E7FB0221B1
:1038C0004DF21A1001F0E2FB01214DF21B1001F044
:1038D000DDFB02214DF21C1001F0D8FB34214DF22A
:1038E0001D1001F0D3FB02214DF21E1001F0CEFBA2
:1038F00067214DF21F1001F0C9FB02214DF220108B
:1039000001F0C4FB84214DF2211001F0BFFB022124
:103910004DF2221001F0BAFBA4214DF2231001F068
:10392000B5FB02214DF2241001F0B0FBB7214DF29E
:10393000251001F0ABFB02214DF2261001F0A6FB91
:10394000CF214DF2271001F0A1FB02214DF22810EA
:1039500001F09CFBDE214DF2291001F097FB0221C2
:103960004DF22A1001F092FBF2214DF22B1001F0E2
:103970008DFB02214DF22C1001F088FBFE214DF24F
:103980002D1001F083FB03214DF22E1001F07EFB80
:1039900010214DF22F1001F079FB03214DF2301070
:1039A00001F074FB33214DF2311001F06FFB032164
:1039B0004DF2321001F06AFB6D214DF2331001F02F
:1039C00065FB00214FF4524001F060FB33214DF2C2
:1039D000012001F05BFB00214DF2022001F056FBBB
:1039E00034214DF2032001F051FB00214DF204205F
:1039F00001F04CFB3A214DF2052001F047FB00217C
:103A00004DF2062001F042FB4A214DF2072001F061
:103A10003DFB00214DF2082001F038FB5C214DF206
:103A2000092001F033FB00214DF20A2001F02EFBAA
:103A300081214DF20B2001F029FB00214DF20C20D9
:103A400001F024FBA6214DF20D2001F01FFB002107
:103A50004DF20E2001F01AFBE5214DF20F2001F08E
:103A600015FB01214DF2102001F010FB13214DF246
:103A7000112001F00BFB01214DF2122001F006FB99
:103A800054214DF2132001F001FB01214DF21420CD
:103A900001F0FCFA82214DF2152001F0F7FA012124
:103AA0004DF2162001F0F2FACA214DF2172001F072
:103AB000EDFA02214DF2182001F0E8FA00214DF252
:103AC000192001F0E3FA02214DF21A2001F0DEFA8A
:103AD00001214DF21B2001F0D9FA02214DF21C20E8
:103AE00001F0D4FA34214DF21D2001F0CFFA022169
:103AF0004DF21E2001F0CAFA67214DF21F2001F09D
:103B0000C5FA02214DF2202001F0C0FA84214DF2C5
:103B1000212001F0BBFA02214DF2222001F0B6FA79
:103B2000A4214DF2232001F0B1FA02214DF224200C
:103B300001F0ACFAB7214DF2252001F0A7FA0221DD
:103B40004DF2262001F0A2FACF214DF2272001F0FC
:103B50009DFA02214DF2282001F098FADE214DF263
:103B6000292001F093FA02214DF22A2001F08EFA69
:103B7000F2214DF22B2001F089FA02214DF22C2086
:103B800001F084FAFE214DF22D2001F07FFA03218D
:103B90004DF22E2001F07AFA10214DF22F2001F083
:103BA00075FA03214DF2302001F070FA33214DF205
:103BB000312001F06BFA03214DF2322001F066FA58
:103BC0006D214DF2332001F061FA00214FF4534092
:103BD00001F05CFA33214DF2013001F057FA002177
:103BE0004DF2023001F052FA34214DF2033001F06F
:103BF0004DFA00214DF2043001F048FA3A214DF21D
:103C0000053001F043FA00214DF2063001F03EFA92
:103C10004A214DF2073001F039FA00214DF2083007
:103C200001F034FA5C214DF2093001F02FFA002145
:103C30004DF20A3001F02AFA81214DF20B3001F0E9
:103C400025FA00214DF20C3001F020FAA6214DF2A8
:103C50000D3001F01BFA00214DF20E3001F016FA82
:103C6000E5214DF20F3001F011FA01214DF2103033
:103C700001F00CFA13214DF2113001F007FA012185
:103C80004DF2123001F002FA54214DF2133001F0DE
:103C9000FDF901214DF2143001F0F8F982214DF2C5
:103CA000153001F0F3F901214DF2163001F0EEF973
:103CB000CA214DF2173001F0E9F902214DF2183016
:103CC00001F0E4F900214DF2193001F0DFF9022191
:103CD0004DF21A3001F0DAF901214DF21B3001F0FA
:103CE000D5F902214DF21C3001F0D0F934214DF20A
:103CF0001D3001F0CBF902214DF21E3001F0C6F962
:103D000067214DF21F3001F0C1F902214DF2203040
:103D100001F0BCF984214DF2213001F0B7F9022104
:103D20004DF2223001F0B2F9A4214DF2233001F01E
:103D3000ADF902214DF2243001F0A8F9B7214DF27E
:103D4000253001F0A3F902214DF2263001F09EF951
:103D5000CF214DF2273001F099F902214DF22830A0
:103D600001F094F9DE214DF2293001F08FF90221A2
:103D70004DF22A3001F08AF9F2214DF22B3001F098
:103D800085F902214DF22C3001F080F9FE214DF22F
:103D90002D3001F07BF903214DF22E3001F076F940
:103DA00010214DF22F3001F071F903214DF2303026
:103DB00001F06CF933214DF2313001F067F9032144
:103DC0004DF2323001F062F96D214DF2333001F0E5
:103DD0005DF900214FF4544001F058F933214DF2C0
:103DE000014001F053F900214DF2024001F04EF97B
:103DF00034214DF2034001F049F900214DF2044015
:103E000001F044F93A214DF2054001F03FF900215B
:103E10004DF2064001F03AF94A214DF2074001F017
:103E200035F900214DF2084001F030F95C214DF2E6
:103E3000094001F02BF900214DF20A4001F026F96A
:103E400081214DF20B4001F021F900214DF20C408F
:103E500001F01CF9A6214DF20D4001F017F90021E7
:103E60004DF20E4001F012F9E5214DF20F4001F044
:103E70000DF901214DF2104001F008F913214DF226
:103E8000114001F003F901214DF2124001F0FEF85A
:103E900054214DF2134001F0F9F801214DF2144084
:103EA00001F0F4F882214DF2154001F0EFF8012104
:103EB0004DF2164001F0EAF8CA214DF2174001F028
:103EC000E5F802214DF2184001F0E0F800214DF232
:103ED000194001F0DBF802214DF21A4000E000E346
:103EE00001F0D4F801214DF21B4001F0CFF802217E
:103EF0004DF21C4001F0CAF834214DF21D4001F092
:103F0000C5F802214DF21E4001F0C0F867214DF2C4
:103F10001F4001F0BBF802214DF2204001F0B6F83D
:103F200084214DF2214001F0B1F802214DF22240EE
:103F300001F0ACF8A4214DF2234001F0A7F80221D2
:103F40004DF2244001F0A2F8B7214DF2254001F0D6
:103F50009DF802214DF2264001F098F8CF214DF254
:103F6000274001F093F802214DF2284001F08EF82D
:103F7000DE214DF2294001F089F802214DF22A405C
:103F800001F084F8F2214DF22B4001F07FF802217C
:103F90004DF22C4001F07AF8FE214DF22D4001F057
:103FA00075F803214DF22E4001F070F810214DF20A
:103FB0002F4001F06BF803214DF2304001F066F81C
:103FC00033214DF2314001F061F803214DF23240CE
:103FD00001F05CF86D214DF2334001F057F80021FB
:103FE0004FF4554001F052F833214DF2015001F0E9
:103FF0004DF800214DF2025001F048F834214DF205
:10400000035001F043F800214DF2045001F03EF856
:104010003A214DF2055001F039F800214DF20650D9
:1040200001F034F84A214DF2075001F02FF8002139
:104030004DF2085001F02AF85C214DF2095001F0D0
:1040400025F800214DF20A5001F020F881214DF2AF
:104050000B5001F01BF800214DF20C5001F016F846
:10406000A6214DF20D5001F011F800214DF20E5035
:1040700001F00CF8E5214DF20F5001F007F8012195
:104080004DF2105001F002F813214DF2115000F0E2
:10409000FDFF01214DF2125000F0F8FF54214DF2C6
:1040A000135000F0F3FF01214DF2145000F0EEFF29
:1040B00082214DF2155000F0E9FF01214DF216501A
:1040C00000F0E4FFCA214DF2175000F0DFFF02219B
:1040D0004DF2185000F0DAFF00214DF2195000F0B7
:1040E000D5FF02214DF21A5000F0D0FF01214DF210
:1040F0001B5000F0CBFF02214DF21C5000F0C6FF18
:1041000034214DF21D5000F0C1FF02214DF21E502E
:1041100000F0BCFF67214DF21F5000F0B7FF0221F5
:104120004DF2205000F0B2FF84214DF2215000F0FA
:10413000ADFF02214DF2225000F0A8FFA4214DF264
:10414000235000F0A3FF02214DF2245000F09EFF07
:10415000B7214DF2255000F099FF02214DF2265073
:1041600000F094FFCF214DF2275000F08FFF022185
:104170004DF2285000F08AFFDE214DF2295000F068
:1041800085FF02214DF22A5000F080FFF2214DF20E
:104190002B5000F07BFF02214DF22C5000F076FFF7
:1041A000FE214DF22D5000F071FF03214DF22E50F3
:1041B00000F06CFF10214DF22F5000F067FF03213B
:1041C0004DF2305000F062FF33214DF2315000F0DB
:1041D0005DFF03214DF2325000F058FF6D214DF28A
:1041E000335000F053FF00214FF4564000F04EFFD3
:1041F00033214DF2016000F049FF00214DF20260D1
:1042000000F044FF34214DF2036000F03FFF002135
:104210004DF2046000F03AFF3A214DF2056000F0E3
:1042200035FF00214DF2066000F030FF4A214DF2CB
:10423000076000F02BFF00214DF2086000F026FF20
:104240005C214DF2096000F021FF00214DF20A606F
:1042500000F01CFF81214DF20B6000F017FF0021E0
:104260004DF20C6000F012FFA6214DF20D6000F03F
:104270000DFF00214DF20E6000F008FFE5214DF228
:104280000F6000F003FF01214DF2106000F0FEFE10
:1042900013214DF2116000F0F9FE01214DF2126080
:1042A00000F0F4FE54214DF2136000F0EFFE012106
:1042B0004DF2146000F0EAFE82214DF2156000F02C
:1042C000E5FE01214DF2166000F0E0FECA214DF23C
:1042D000176000F0DBFE02214DF2186000F0D6FE00
:1042E00000214DF2196000F0D1FE02214DF21A605A
:1042F00000F0CCFE01214DF21B6000F0C7FE022150
:104300004DF21C6000F0C2FE34214DF21D6000F041
:10431000BDFE02214DF21E6000F0B8FE67214DF295
:104320001F6000F0B3FE02214DF2206000F0AEFEEF
:1043300084214DF2216000F0A9FE02214DF222609D
:1043400000F0A4FEA4214DF2236000F09FFE0221A4
:104350004DF2246000F09AFEB7214DF2256000F086
:1043600095FE02214DF2266000F090FECF214DF225
:10437000276000F08BFE02214DF2286000F086FEDF
:10438000DE214DF2296000F081FE02214DF22A600B
:1043900000F07CFEF2214DF22B6000F077FE02214E
:1043A0004DF22C6000F072FEFE214DF22D6000F007
:1043B0006DFE03214DF22E6000F068FE10214DF2DB
:1043C0002F6000F063FE03214DF2306000F05EFECE
:1043D00033214DF2316000F059FE03214DF232607D
:1043E00000F054FE6D214DF2336000F04FFE552178
:1043F000404600F04BFEAA21184600F047FE52212D
:10440000204600F043FE0821304600F03FFE002128
:10441000384600F03BFECC21504600F037FE00212C
:10442000584600F033FE0521484600F02FFE70216B
:104430004FF4374000F02AFE70214BF2017000F07B
:1044400025FE01214FF4384000F020FE03214BF6F9
:10445000010000F01BFE03214BF6020000F016FEE7
:1044600003214BF6030000F011FE02214FF43C4003
:1044700000F00CFE00214BF6014000F007FE002189
:104480004BF6024000F002FED0214FF4494000F00C
:10449000FDFD02214CF6011000F0F8FD50214CF614
:1044A000021000F0F3FD50214CF6031000F0EEFD79
:1044B00050214CF6041000F0E9FD00214FF4545057
:1044C00000F0E4FD55214FF4685000F0DFFD4FF49B
:1044D000885000F0C5FD7820FCF74AFB4FF42450CB
:1044E00083E2B8427ED1112000F0BAFD7820FCF7BB
:1044F0003FFB362000F0B4FD482000F0A5FD3A2037
:1045000000F0AEFD552000F09FFDF02000F0A8FD6A
:10451000C32000F099FDF02000F0A2FD962000F0ED
:1045200093FDB42000F09CFD012000F08DFDB6202D
:1045300000F096FD0A2000F087FDA22000F084FD27
:10454000B72000F08DFDC62000F07EFDB92000F000
:1045500087FD022000F078FDE02000F075FDC0200E
:1045600000F07EFD802000F06FFD162000F06CFD55
:10457000C12000F075FD192000F066FDC22000F09A
:104580006FFDA72000F060FDC52000F069FD16203A
:1045900000F05AFDE82000F063FD402000F054FDDB
:1045A0008A2000F051FD002000F04EFD002000F0B8
:1045B0004BFD292000F048FD192000F045FDA52005
:1045C00000F042FD332000F03FFDE02000F048FD08
:1045D000F02000F039FD072000F036FD0D2000F03E
:1045E00033FD00E061E0042000F02EFD052000F026
:1045F0002BFD142000F028FD362000F025FD54206E
:1046000000F022FD4C2000F01FFD382000F01CFDC2
:10461000132000F019FD142000F016FD2E2000F0EC
:1046200013FD342000F010FDE12000F019FDF02012
:1046300000F00AFD102000F007FD142000F004FD3A
:104640000E2000F001FD0C2000F0FEFC082000F020
:10465000FBFC352000F0F8FC442000F0F5FC4C2079
:1046600000F0F2FC262000F0EFFC102000F0ECFC43
:10467000122000F0E9FC2C2000F0E6FC322000F0D3
:10468000E3FCF02000F0ECFC3C2000F0DDFCF0202E
:1046900000F0E6FC692000F0D7FC7820FCF768FA0F
:1046A000212000F0DDFCFEF71EB858457ED1FF202A
:1046B00000F0D6FCFF2000F0C7FC982000F0C4FCFE
:1046C000062000F0C1FCBC2000F0CAFC012000F074
:1046D000BBFC0F2000F0B8FC612000F0B5FCFF200F
:1046E00000F0B2FC012000F0AFFC012000F0ACFCB7
:1046F0000B2000F0A9FC102000F0A6FC372000F0F1
:10470000A3FC632000F0A0FCFF2000F09DFCFF2034
:1047100000F09AFC012000F097FC012000F094FCCE
:10472000002000F091FC002000F08EFCFF2000F043
:104730008BFC522000F088FC012000F085FC00205A
:1047400000F082FC402000F07FFCBD2000F088FCDF
:10475000012000F079FC232000F076FC452000F0D9
:1047600073FC672000F070FC012000F06DFC23203A
:1047700000F06AFC452000F067FC672000F064FC54
:10478000BE2000F06DFC002000F05EFC012000F077
:104790005BFCAB2000F058FC602000F055FC2220B0
:1047A00000F052FC222000F04FFC00E020E122202B
:1047B00000F04AFC222000F047FC222000F044FCDC
:1047C000C72000F04DFC362000F03EFCED2000F04C
:1047D00047FC7F2000F038FC0F2000F035FCC020A3
:1047E00000F03EFC0F2000F02FFC0B2000F02CFC12
:1047F0000A2000F029FCFC2000F032FC082000F028
:1048000023FCDF2000F02CFC002000F01DFC002029
:1048100000F01AFC002000F017FC002000F014FC4F
:10482000002000F011FC202000F00EFCF32000F02E
:1048300017FC742000F008FCB42000F011FC0020EC
:1048400000F002FC002000F0FFFB002000F0FCFB69
:10485000F72000F005FC822000F0F6FBB12000F00C
:10486000FFFB002000F0F0FB132000F0EDFB132015
:1048700000F0EAFBF22000F0F3FB802000F0E4FB04
:10488000042000F0E1FB402000F0DEFB282000F0D7
:10489000DBFBC12000F0E4FB172000F0D5FB8820F3
:1048A00000F0D2FB882000F0CFFB202000F0CCFBF2
:1048B000E02000F0D5FB002000F0C6FB0A2000F04D
:1048C000C3FB122000F0C0FB102000F0BDFB0E2047
:1048D00000F0BAFB202000F0B7FBCC2000F0B4FBC6
:1048E000072000F0B1FB062000F0AEFB0B2000F02B
:1048F000ABFB0E2000F0A8FB0F2000F0A5FB0D2065
:1049000000F0A2FB152000F09FFB102000F09CFBA4
:10491000002000F099FBE12000F0A2FB002000F055
:1049200093FB0B2000F090FB132000F08DFB0D207B
:1049300000F08AFB0E2000F087FB1B2000F084FBB8
:10494000712000F081FB062000F07EFB062000F0C5
:104950007BFB0A2000F078FB0F2000F075FB0E2097
:1049600000F072FB0F2000F06FFB152000F06CFBD5
:104970000C2000F069FB002000F066FB2A2000F00C
:104980006FFB002000F060FB002000F05DFB0120C9
:1049900000F05AFBDF2000F057FB2B2000F060FBFB
:1049A000002000F051FB002000F04EFB032000F03F
:1049B0004BFB1F2000F048FB3A2000F051FB552034
:1049C00000F042FB362000F04BFB002000F03CFBE7
:1049D000112000F045FB7820FCF7CAF8292000F0F0
:1049E0003FFB1420FCF7C4F82C2000F039FBBBE09F
:1049F000A0F5C8516339FAD1E22000F031FB1D2047
:104A000000F022FB022000F01FFB042000F01CFB42
:104A10006420FCF7ADF8E02000F022FB012000F05C
:104A200013FB0A20FCF7A4F8E02000F019FB032098
:104A300000F00AFB0C20FCF79BF8012000F010FBB3
:104A40000A20FCF795F8E62000F00AFB2F2000F082
:104A5000FBFAFF2000F0F8FAFF2000F0F5FAB02092
:104A600000F0FEFA202000F0EFFA002000F0ECFA4F
:104A7000032000F0E9FA40F21F3000F0E5FA0120CF
:104A800000F0E2FA40F2DF1000F0DEFA002000F061
:104A9000DBFAB42000F0E4FA042000F0D5FA40F28A
:104AA0001F4000F0D1FA002000F0CEFA2E2000F0D6
:104AB000CBFA002000F0C8FA002000F0C5FA002070
:104AC00000F0C2FA002000F0BFFAB62000F0C8FAE9
:104AD000022000F0B9FA4FF4037000F0B5FA00209C
:104AE00000F0B2FA172000F0AFFA152000F0ACFA8F
:104AF000002000F0A9FA002000F0A6FAF02000F053
:104B0000AFFA032000F0A0FA292000F0A9FAD02083
:104B100000F0A6FA002000F097FABE2000F0A0FAFC
:104B2000052000F091FAFE2000F08EFA012000F03E
:104B30008BFA002000F088FA002000F085FA0020AF
:104B400000F082FAB82000F08BFA032000F07CFA23
:104B5000012000F079FABA2000F082FA012000F07A
:104B600073FA642000F022F80020FDF723FA0122F6
:104B700011460448FCF7DAF92846BDE8F05FFDF776
:104B800001BA0000000C01400246012000E0504341
:104B9000491EC9B2FBD27047034808B50088ADF87A
:104BA0000000BDF8000008BD0008006C10B502460A
:104BB000BE2000F055FA052000F046FA104601F03C
:104BC000FAFA4FF066320B4B01F008FB01F0C6FA1F
:104BD00080B200F039FA012000F036FAFF2000F030
:104BE00033FA002000F030FABDE81040002000F059
:104BF0002BBA00006666044070B55F4C0023214666
:104C0000A279898841F66316012A01D01AB10CE015
:104C1000B14202D109E0B14207D1082805D2DFE84C
:104C200000F0161812140C19100E082812D2DFE822
:104C300000F0110406080A0C0E1080230AE040233D
:104C400008E0C02306E0202304E0602302E0A02364
:104C500000E0E023362045F21055A94200D10002C1
:104C6000A1F51342413A07D0A1F5EE42893A03D0AB
:104C7000A1F5EE42963A01D143F00803194600F03F
:104C800005FAA188B1420AD098062088628802D528
:104C9000904202D303E0904201D922806080608973
:104CA000A94240D100F0DCF9002000F0CDF9608984
:104CB000401C80B200F0D4F9002000F0C5F96089F2
:104CC000801C80B200F0CCF92088401EC0F30F2079
:104CD00000F0BAF96089C01C80B200F0C1F92078F8
:104CE000401EC0B200F0B0F9A08900F0B9F9002070
:104CF00000F0AAF9A089401C80B200F0B1F90020B0
:104D000000F0A2F9A089801C80B200F0A9F96088A7
:104D1000401EC0F30F2000F097F9A089C01C80B29C
:104D200000F09EF921E000F09BF9002000F08CF9E2
:104D3000002000F089F92088401EC0F30F2000F009
:104D400083F92078401EC0B200F07EF9A08900F0FF
:104D500087F9002000F078F9002000F075F96088EC
:104D6000401EC0F30F2000F06FF9A078BDE870403E
:104D7000401EC0B200F068B9F8010020F0B53B4A0F
:104D80000D460446060A918810462F0A4089A1F56F
:104D9000C853633B16D0A1F5AA43103B4CD000F09A
:104DA0005FF9304600F050F9E0B200F04DF990891B
:104DB00000F056F9384600F047F9E8B2BDE8F04097
:104DC00000F042B9917931B300F04AF9304600F071
:104DD0003BF9E0B200F038F91088401EC0F30F2014
:104DE00000F032F91078401E5FFA80F000F02CF9E4
:104DF000908900F035F9384600F026F9E8B200F065
:104E000023F95088401EC0F30F2000F01DF9907860
:104E1000401EC0B2D2E71188091B491E8CB200F0B7
:104E20001FF9002000F010F9002000F00DF9200A11
:104E300000F00AF9E0B2D9E700F012F9304600F0CC
:104E400003F95089401C80B200F00AF9E0B200F08A
:104E5000FBF8908900F004F9384600F0F5F89089E5
:104E6000401C80B200F0FCF8A7E70000F801002029
:104E70002DE9FF4F1D460C468A46580700D00120F9
:104E800000EBD50069084843203A00F0FF09D0B292
:104E90000026DFF89CB0029046E00C2D12D0102DB9
:104EA00015D0182D42D10298224900EBC00000BF56
:104EB00001EB80004FF00008875D38060CD51E48D6
:104EC00000880DE002981D4900EB4000F0E71C4906
:104ED000029801EB0010EDE70D9830B91648808874
:104EE000214682B20098FDF7DBF87806070E641CB5
:104EF000BBF80200A4B2A04218D9A4EB0A00A84251
:104F000009D100985446401C80B20090BBF80010B4
:104F100081420BD906E008F1010000F0FF08B8F16A
:104F2000080FCAD3761CF6B24E45B6D3BDE8FF8F44
:104F3000F8010020A67B07086000002042710708E6
:104F4000B67507082DE9FF4F81B00026DDF838A0BF
:104F50001D46934681463446B0464FEA5A0727E03D
:104F6000281B401EC1B20A20FFF70EFEBBFBF0F06B
:104F70000A21B0FBF1F201FB120026B9691E8C4236
:104F800001DA48B101263030C2B207FB049080B28A
:104F90005346CDF8008006E007FB049080B25346EC
:104FA0002022CDF800800299FFF762FF641CE4B272
:104FB000AC42D5D305B0BDE8F08F2DE9F043814672
:104FC0000C4602EB090703EB0408079E0DE04D4673
:104FD00007E036F8022B21462846FDF761F86D1CE4
:104FE000ADB2AF42F5D8641CA4B2A045EFD8BDE87D
:104FF000F0832DE9F84F044600F0FF0910190D4623
:10500000DDE90AB61FFA80F8581987B24FF0000A96
:1050100012E0444503D305EB0B004C4685B2BD427C
:105020000FD25B4629462046CDF800A0FFF720FFAF
:1050300004EB5B0084B2761C3278A2F120005E287B
:10504000E7D9BDE8F88F000001B5BDF80000ADF864
:105050000000BDF800000149088008BD0008006C90
:1050600001B5BDF80000ADF80000BDF80000014931
:10507000088008BDFE07006C0248034900890880CB
:1050800070470000F8010020FE07006C024A108003
:10509000901C018070470000FE07006C3EB50024A4
:1050A00011480094019402940E49846001600473D5
:1050B0000475012505614FF460214460C161FBF76F
:1050C000C9FA08B1FBF7CFF90C20CDE90005694614
:1050D00002940548FBF73AFA002801D0FBF7C3F920
:1050E0003EBD000000280140780000203EB50024AD
:1050F00011480094019402940E4984600160047385
:105100000475012505614FF460214460C161FBF71E
:10511000A1FA08B1FBF7A7F90D20CDE90005694612
:1051200002940548FBF712FA002801D0FBF79BF91F
:105130003EBD0000003C0140A800002010B58EB02C
:105140001C216846FBF762F81C2107A8FBF75EF8F4
:105150001C484FF02041102201601B49416006218C
:1051600081600021C160C0E904128161C161130244
:105170000162C0E909139302C0E90B134163816323
:10518000022000900F20CDE9010203AC112384E836
:105190000E0004240691CDE9074009AC092084E8FB
:1051A0000F000D9107AA69460648FCF7A1FA08B15D
:1051B000FBF759F90548C16941F48061C1610EB03E
:1051C00010BD0000D8000020040100A00000014034
:1051D0002DE9F04F85B000255748009501950295BF
:1051E0000395816941F080018161816901F080014D
:1051F0000491816941F010018161816901F0100120
:105200000491816941F004018161816901F0040127
:105210000491816941F008018161816901F008010F
:105220000491816941F480718161816901F4807127
:105230000491816941F040018161816901F040017F
:105240000491816941F0200181618069DFF8ECA05F
:1052500000F02000049000222B215046FBF766FE50
:10526000012202213648FBF761FEDFF8D8B042F296
:105270000137002239465846FBF758FE4FF4E078D4
:10528000002241463048FBF751FE4FF4807900225E
:1052900049462B48FBF74AFE2B2001260224CDE984
:1052A0000006CDE9025469465046FBF743FD4FF432
:1052B000C070CDE90005694650460295FBF73AFDFE
:1052C00022486946CDE9004002961F48FBF732FDAF
:1052D000CDE90046CDE9026469461948FBF72AFD8D
:1052E000CDE90254CDE9007669465846FBF722FD28
:1052F000CDE90254CDE9008669461348FBF71AFD53
:10530000200200901248CDE9010469460E48FBF7DF
:1053100011FDCDE90254CDE9009669460848FBF736
:1053200009FD002211460720FBF772FE0720FBF75C
:1053300061FE05B0BDE8F08F00100240001C014086
:1053400000080140000C0140001001400000211045
:105350000000111010B58AB0002407941C21684683
:105360000894FAF753FF1A48184901604721C0E929
:10537000011444F61F61C0E903148461FCF7CAFA02
:1053800008B1FBF770F8079407A911480894FCF7D7
:10539000F7F908B1FBF767F86020CDE90004029443
:1053A000002269460A480494FCF74EFA08B1FBF75C
:1053B0005AF8042269460648FCF746FA08B1FBF79A
:1053C00052F80348FCF71AFA0AB010BD0004004076
:1053D000200100200C4810B50A4901604FF4E1316A
:1053E0004160002181600C22C160C0E9041281612A
:1053F000C161FCF763FC002803D0BDE81040FBF757
:1054000032B810BD00440040680100200C4810B5BF
:105410000A4901604FF416514160002181600C225D
:10542000C160C0E904128161C161FCF747FC00283A
:1054300003D0BDE81040FBF716B810BD004800408F
:10544000B0010020C821B0FBF1F000EBC00101EB7E
:1054500000104FF4FA7101EB800080B27047FEE754
:105460002DE9FC41374C012240212046FBF75EFD2F
:10547000002280212046FBF759FDA5150022294670
:105480002046FBF753FD012229462F48FBF74EFD2E
:10549000012251032D48FBF749FD2D4CE08801F016
:1054A000F7F80546A06901F0DBF804F14002A16AB3
:1054B000CDE90012D4E908232946FCF72BFD054667
:1054C000208901F0E5F80646E06901F0C9F804F129
:1054D0004402616BCDE90012D4E90B233146FCF79D
:1054E00019FDE16B06460F46284601F0E5F8A16C70
:1054F00000F072FF0546A0643946304601F0DCF842
:10550000E16C00F069FF1349E0648D4202DB12494F
:105510008D4200DDA1641149884202DB10498842B6
:1055200000DDE164A06C01F07BF80E4D2968486352
:10553000E06C01F075F829688863BDE8FC41012042
:10554000FBF716BB0010014000080140000C0140B1
:10555000000000200000FA4300401C4500006144A8
:10556000004003452001002010B51B4C00224021C3
:105570002046FBF7DBFC012280212046FBF7D6FC0E
:105580000022A1152046FBF7D1FC00F0E5FC134CEE
:10559000206500F0F9FC6065B4F8500080B2FFF7B8
:1055A00051FF6081B4F8540080B2FFF74BFF0C4903
:1055B000A08162890B685A630968886304230A2101
:1055C000012000F0FDF9A28904230A21BDE8104062
:1055D0000B2000F0F5B90000001001400000002091
:1055E0002001002070B5314C002240212046FBF7FD
:1055F0009DFC002280212046FBF798FC012211022D
:105600002046FBF793FC00F0A7FC294C206500F036
:10561000BBFC6065B4F8500080B2FAF7C7FEE189C0
:105620004FF416650844AE10A84210DAB4F85000E2
:1056300080B2FAF7BBFEE1890844B04207DDB4F856
:10564000500080B2FAF7B2FEE1890844E081B4F874
:10565000540080B2FAF7AAFE218A0844A84210DA60
:10566000B4F8540080B2FAF7A1FE218A0844B0428F
:1056700007DDB4F8540080B2FAF798FE218A084496
:1056800020820C48E28901684A630068218A8163AC
:1056900004230A21012000F093F9228ABDE870401A
:1056A00004230A210B2000F08BB9000000100140F8
:1056B0000000002020010020FEE770B5002400213A
:1056C000204600F038F90025002000F0BEF96D1CDE
:1056D000EDB2802DF8D3641CE4B2082CEFD370BD7A
:1056E0000549064A0968B1FBF2F1414300E000BFF9
:1056F000491EFCD27047000074000020404B4C0053
:1057000070B586B0002002901348816941F008010D
:10571000816180694FF4807400F0080004901120CA
:10572000CDE9004003200D4E039069463046FBF75B
:1057300001FB6500694630460095FBF7FBFA012244
:1057400021463046FBF7F2FB012229463046FBF7A3
:10575000EDFB06B070BD000000100240000C0140DF
:105760002DE9F041204F054600244FF400784FF416
:105770008076002231463846FBF7D8FB280601D553
:10578000012200E0002241463846FBF7CFFB6806C5
:10579000050E0220FFF7A4FF012231463846FBF731
:1057A000C5FB0220FFF79CFF641CE4B2082CE0D389
:1057B000002231463846FBF7B9FB01224146384604
:1057C000FBF7B4FB0220FFF78BFF0122314638467E
:1057D000FBF7ACFB0220FFF783FF31463846BDE8FC
:1057E000F0410022FBF7A2BB000C014070B5012282
:1057F0000E4D540221462846FBF798FB0122160263
:1058000031462846FBF792FB0420FFF769FF002290
:1058100021462846FBF78AFB0420FFF761FF31464B
:105820002846BDE870400022FBF780BB000C014019
:1058300070B5114D4FF48074002221462846FBF7C5
:1058400075FB6600002231462846FBF76FFB0420FB
:10585000FFF746FF012221462846FBF767FB04209D
:10586000FFF73EFF012231462846FBF75FFBBDE80C
:1058700070400420FFF734BF000C014010B5002039
:105880004FF47A720021491C9142FCD3401C904293
:10589000F8D3FFF735FFAE2000F0C6F8D52000F0B2
:1058A000C3F8802000F0C0F8A82000F0BDF83F2029
:1058B00000F0BAF8D32000F0B7F8002000F0B4F8F8
:1058C000402000F0B1F8A12000F0AEF8C82000F0B0
:1058D000ABF8DA2000F0A8F8122000F0A5F881203B
:1058E00000F0A2F8CF2000F09FF8D92000F09CF83B
:1058F000F12000F099F8DB2000F096F8302000F05D
:1059000093F8A42000F090F8A62000F08DF88D20E8
:1059100000F08AF8142000F087F8AF2000F084F837
:10592000BDE81040FFF7C9BE0246012000E0504329
:10593000491EFCD2704710B50C4640F0B00000F094
:1059400073F8102040EA141000F06EF804F00F0015
:10595000BDE8104000F068B82DE9F0410746CE00E0
:105960004000083E801E15464FF0FF38F1B2C0B22D
:10597000FFF7E1FF1148002400EB05152819A0F5F9
:10598000805090F8000E00F060F8641CE4B2082C1F
:10599000F4D308EB4700F1B2C0B2FFF7CCFF00240C
:1059A0002819A0F5805090F8080E00F04EF8641CFD
:1059B000E4B2082CF4D3BDE8F081000002890708A6
:1059C0002DE9F04700241D461646884681460A27E1
:1059D00013E0291B0A20491EFFF7A6FFB6FBF0F0D3
:1059E000B0FBF7F107FB110208EB0400C1B2484617
:1059F0003032FFF7B1FF641CE4B2AC42E9D3BDE83A
:105A0000F0872DE9F04115460E460746002406E0D2
:105A10003019C1B23846FFF79FFF641CE4B22A5D1B
:105A2000002AF5D1BDE8F08110B50446FFF7DEFE8F
:105A30007820FFF795FE0020FFF792FE2046FFF743
:105A40008FFEBDE81040FFF7F3BE10B50446FFF728
:105A5000CDFE7820FFF784FE4020FFF781FE204630
:105A6000FFF77EFEBDE81040FFF7E2BE70477047CB
:105A7000FBF768BA30B595B028216846FAF7C6FB3F
:105A800014210AA8FAF7C2FB18210FA8FAF7BEFBE7
:105A900001210804CDE9001000250295022404919B
:105AA000CDE907404FF4E01009906846FBF790FC01
:105AB00008B172B6FEE70AA90F2081E831004FF461
:105AC0008060CDE90D0502210AA8FBF7A5FB08B10E
:105AD00072B6FEE74FF4004011900F940FA8FBF749
